S01B000061706C69636163696F6E5F696E7465727275702E737265631E
S11300000C9434000C9474000C9491000C946500CE
S11300100C9451000C9451000C9451000C94510018
S11300200C9451000C9451000C9451000C94510008
S11300300C9451000C9451000C9451000C945100F8
S11300400C9451000C9451000C9451000C945100E8
S11300500C9451000C9451000C9451000C945100D8
S11300600C9451000C94510011241FBECFEFD8E022
S1130070DEBFCDBF11E0A0E0B1E0EAEDF9E002C0DF
S113008005900D92AE30B107D9F721E0AEE0B1E0B2
S113009001C01D92AC33B207E1F70E9482010C94B7
S11300A0EB040C940000E9E6F0E080818360808337
S11300B08DB381608DBB80818860808380818B7FDC
S11300C080838DB382608DBB08951F920F920FB60B
S11300D00F9211248F938BB381608BBB8F910F9000
S11300E00FBE0F901F9018951F920F920FB60F928C
S11300F011248F939F938091120190911301019683
S1130100909313018093120181E080930F018CB3CB
S113011081608CBB9F918F910F900FBE0F901F90A9
S113012018951F920F920FB60F9211248F939F93DD
S11301308091100190911101019690931101809387
S1130140100181E080930E018CB382608CBB9F917F
S11301508F910F900FBE0F901F90189580FF04C0D1
S113016095B1946095B903C095B19B7F95B981FF12
S113017004C095B1986095B903C095B1977F95B9BE
S113018082FF04C095B1906195B903C095B19F7E7B
S113019095B983FF04C085B1806285B9089585B19E
S11301A08F7D85B9089595B19E7F95B995B191607C
S11301B095B90E94AE008FE99FE00197F1F700C066
S11301C0000085B18E7F85B9089584B18F6384B9A9
S11301D083E00E94D30083E00E94D30083E00E9466
S11301E0D30082E00E94D30082E00E94D30088E022
S11301F00E94D30080E00E94D30088E00E94D300D4
S113020080E00E94D30081E00E94D30080E00E943D
S1130210D3008DE00E94D3000895CF9395B19D7FC4
S113022095B96130C9F028F0623049F16330D1F1F9
S11302304BC0C0E8C80F90E080589F4F95958795B4
S11302409595879595958795959587950E94D30063
S11302508C2F0E94D30038C0C0ECC80F90E08054AB
S11302609F4F9595879595958795959587959595A0
S113027087950E94D3008C2F0E94D30025C0C4E927
S1130280C80F90E08C569F4F9595879595958795C7
S113029095958795959587950E94D3008C2F0E94FC
S11302A0D30012C0C4EDC80F90E08C529F4F9595B7
S11302B087959595879595958795959587950E94AA
S11302C0D3008C2F0E94D300CF910895CF93C82FD1
S11302D085B1826085B98C2F82958F700E94D3007E
S11302E08C2F0E94D300CF910895CF93DF93EC011C
S11302F003C021960E94660188818111FACFDF91A3
S1130300CF910895F8940E94E50080911201909194
S113031013019F938F93C0E0D1E0DF93CF9384E1E7
S113032091E09F938F930E9401028091100190911C
S113033011019F938F93DF93CF9388E291E09F9372
S11303408F930E94010260E080E00E940D0184E12D
S113035091E00E94750161E080E00E940D0188E255
S113036091E00E9475010E94530078948DB79EB766
S11303700C960FB6F8949EBF0FBE8DBF80910F01EF
S1130380811104C080910E018823C1F38091120170
S1130390909113019F938F93C0E0D1E0DF93CF93AB
S11303A084E191E09F938F930E9401028091100158
S11303B0909111019F938F93DF93CF9388E291E003
S11303C09F938F930E94010260E080E00E940D01E0
S11303D084E191E00E94750161E080E00E940D01DA
S11303E088E291E00E94750110920F0110920E01B3
S11303F08DB79EB70C960FB6F8949EBF0FBE8DBFF7
S1130400BDCFAEE0B0E0E7E0F2E00C94C2040D89A9
S11304101E8986E08C831A8309838FEF9FE79E836E
S11304208D83AE01475E5F4F6F89788DCE01019653
S11304300E942302EF81F885E00FF11F10822E96AF
S1130440E4E00C94DE04ABE0B0E0E9E2F2E00C940A
S1130450B4046C017B018A01FC011782168283813A
S113046081FFCCC1CE0101963C01F6019381F701D5
S113047093FD859193FF81917F01882309F4BAC18B
S1130480853239F493FD859193FF81917F01853203
S113049029F4B60190E00E941A04E7CF912C212C94
S11304A0312CFFE1F315D8F08B3279F038F4803237
S11304B079F08332A1F4232D20611DC08D3261F0C7
S11304C0803369F4232D216016C0832D8260382E79
S11304D0E32DE4603E2E2AC0F32DF8601DC037FCE6
S11304E02DC020ED280F2A3040F08E32B9F436FCAE
S11304F081C1232D2064322E19C036FE06C08AE045
S1130500989E200D1124922E11C0EAE02E9E200DFB
S11305101124222EF32DF0623F2E08C08C3621F4D4
S1130520832D8068382E02C0883641F4F70193FD8C
S1130530859193FF81917F018111B3CF982F9F7D86
S11305409554933028F40C5F1F4F9FE399830DC09B
S1130550833631F0833771F0833509F059C021C0F7
S1130560F801808189830E5F1F4F88248394912C26
S1130570530113C02801F2E04F0E511CF801A08072
S1130580B18036FE03C0692D70E002C06FEF7FEFCB
S1130590C5010E940F044C018201F32DFF773F2E09
S11305A016C0280122E0420E511CF801A080B1803F
S11305B036FE03C0692D70E002C06FEF7FEFC50106
S11305C00E9404044C01F32DF0683F2E820133FC99
S11305D01BC0822D90E088169906B0F4B60180E223
S11305E090E00E941A042A94F4CFF50137FC859117
S11305F037FE81915F01B60190E00E941A04211038
S11306002A9421E0821A91088114910471F7E8C0B8
S1130610843611F0893641F5F80137FE07C0608150
S11306207181828193810C5F1F4F08C06081718149
S1130630072E000C880B990B0E5F1F4FF32DFF76CE
S11306403F2E97FF09C090958095709561957F4FD7
S11306508F4F9F4FF0683F2E2AE030E0A3010E94A5
S11306605604882E861845C0853731F4232D2F7EF5
S1130670B22E2AE030E025C0932D997FB92E8F3613
S1130680C1F018F4883579F0B5C0803719F088378F
S113069021F0B0C0E92FE061BE2EB4FE0DC0FB2DE9
S11306A0F460BF2E09C034FE0AC0292F2660B22E82
S11306B006C028E030E005C020E130E002C020E1BF
S11306C032E0F801B7FE07C06081718182819381B5
S11306D00C5F1F4F06C06081718180E090E00E5F67
S11306E01F4FA3010E945604882E8618FB2DFF7706
S11306F03F2E36FE0DC0232D2E7FA22E891458F4D2
S113070034FE0BC032FC09C0832D8E7EA82E05C09A
S1130710B82CA32C03C0B82C01C0B92CA4FE0FC064
S1130720FE01E80DF11D8081803321F49A2D997E1C
S1130730A92E09C0A2FE06C0B394B39404C08A2DA6
S1130740867809F0B394A3FC11C0A0FE06C0B214CD
S113075088F4280C922C9B180EC0B21460F4B601D5
S113076080E290E00E941A04B394F7CFB21418F414
S11307702B1802C0982C212CA4FE10C0B60180E3D3
S113078090E00E941A04A2FE17C0A1FC03C088E7EF
S113079090E002C088E590E0B6010CC08A2D86780E
S11307A059F0A1FE02C08BE201C080E2A7FC8DE2F9
S11307B0B60190E00E941A04891438F4B60180E36B
S11307C090E00E941A049A94F7CF8A94F301E80DFA
S11307D0F11D8081B60190E00E941A048110F5CFCA
S11307E0222009F442CEB60180E290E00E941A046D
S11307F02A94F6CFF6018681978102C08FEF9FEF8E
S11308002B96E2E10C94D004FC01059061507040F9
S11308100110D8F7809590958E0F9F1F0895FC01C5
S11308206150704001900110D8F7809590958E0F1B
S11308309F1F08950F931F93CF93DF93FB01238191
S113084021FD03C08FEF9FEF2CC022FF16C046810D
S11308505781248135814217530744F4A081B18123
S11308609D012F5F3F4F318320838C9326813781F5
S11308702F5F3F4F3783268314C08B01EC01FB01AC
S11308800084F185E02D0995892BE1F6D8011696AF
S11308908D919C911797019617969C938E9316971A
S11308A0CE01DF91CF911F910F910895FA01AA27EC
S11308B0283051F1203181F1E8946F936E7F6E5F9F
S11308C07F4F8F4F9F4FAF4FB1E03ED0B4E03CD04D
S11308D0670F781F891F9A1FA11D680F791F8A1F30
S11308E0911DA11D6A0F711D811D911DA11D20D097
S11308F009F468943F912AE0269F11243019305D51
S11309003193DEF6CF010895462F4770405D419341
S1130910B3E00FD0C9F7F6CF462F4F70405D4A338E
S113092018F0495D31FD4052419302D0A9F7EACF56
S1130930B4E0A6959795879577956795BA95C9F785
S113094000976105710508959B01AC010A2E069478
S11309505795479537952795BA95C9F7620F731F31
S1130960841F951FA01D08952F923F924F925F926E
S11309706F927F928F929F92AF92BF92CF92DF92AB
S1130980EF92FF920F931F93CF93DF93CDB7DEB710
S1130990CA1BDB0B0FB6F894DEBF0FBECDBF0994A4
S11309A02A88398848885F846E847D848C849B84FB
S11309B0AA84B984C884DF80EE80FD800C811B8109
S11309C0AA81B981CE0FD11D0FB6F894DEBF0FBE38
S10D09D0CDBFED010895F894FFCFA8
S11109DA416C676F646F6E3A202530347500EF
S9030000FC
