S018000070726163746963615F325F75736172742E73726563A6
S11300000C9434000C943E000C943E000C943E007E
S11300100C943E000C943E000C943E000C943E0064
S11300200C943E000C943E000C943E000C943E0054
S11300300C943E000C943E000C943E000C943E0044
S11300400C943E000C943E000C943E000C943E0034
S11300500C943E000C943E000C943E000C943E0024
S11300600C943E000C943E0011241FBECFEFD8E048
S1130070DEBFCDBF0E9471000C94A6000C9400005A
S11300809B01AC0160E874E88EE190E00E9484007A
S1130090215031093093C5002093C400E0ECF0E016
S11300A0808182608083A1ECB0E08C918B7F8C9303
S11300B0E2ECF0E080818660808380818F738083AE
S11300C080818F7C80838081877F80838C9188600E
S11300D08C9308959091C00095FFFCCF8093C60047
S11300E0089560E875E280E090E00E94400083E5B6
S11300F00E946A002FEF89E698E1215080409040E9
S1130100E1F700C00000F3CFA1E21A2EAA1BBB1B2B
S1130110FD010DC0AA1FBB1FEE1FFF1FA217B307CF
S1130120E407F50720F0A21BB30BE40BF50B661FE5
S1130130771F881F991F1A9469F7609570958095A9
S113014090959B01AC01BD01CF010895F894FFCFB8
S9030000FC
