S0150000456A656D706C6F315F4750494F2E7372656384
S11300000C9434000C943E000C943E000C943E007E
S11300100C943E000C943E000C943E000C943E0064
S11300200C943E000C943E000C943E000C943E0054
S11300300C943E000C943E000C943E000C943E0044
S11300400C943E000C943E000C943E000C943E0034
S11300500C943E000C943E000C943E000C943E0024
S11300600C943E000C943E0011241FBECFEFD8E048
S1130070DEBFCDBF0E9440000C9466000C940000CB
S11300808AB18E7F8AB98BB181608BB98AB18D7F39
S11300908AB98BB182608BB984B1816084B984B12F
S11300A0826084B94999FECF4899FCCF85B18160BB
S11300B085B92FEF81EE94E0215080409040E1F724
S11300C000C0000085B18E7F85B9ECCFF894FFCFD6
S9030000FC
