S0150000656A6D706C6F5F454550524F4D2E7372656361
S11300000C9434000C9449000C9449000C9449005D
S11300100C9449000C9449000C9449000C94490038
S11300200C9449000C9449000C9449000C94490028
S11300300C9449000C9449000C9449000C94490018
S11300400C9449000C9449000C9449000C94490008
S11300500C9449000C9449000C9449000C944900F8
S11300600C9449000C94490011241FBECFEFD8E032
S1130070DEBFCDBF11E0A0E0B1E0E4E8F1E002C0F2
S113008005900D92AE30B107D9F70E94AF000C94E1
S1130090C0000C940000E9EBF0E080818C7F808349
S11300A088E48093B8000895ECEBF0E08081846AE2
S11300B080838091BC008823E4F78091B900887F15
S11300C0883021F0803119F481E0089581E00895A9
S11300D08E7F6170682B6093BB0084E88093BC00C2
S11300E08091BC008823E4F78091B900887F88312F
S11300F021F0803419F481E0089581E0089580931B
S1130100BB0084E88093BC008091BC008823E4F7A2
S11301108091B900887F883209F481E00895ECEB7E
S1130120F0E08081846980838091BC0084FFFCCFEF
S113013008951F93CF93DF93EC01162F872F0E940E
S11301407F00812F0E947F0003C021960E947F00C0
S113015088818111FACFDF91CF911F9108950E9478
S11301604B000E94540060E080EA0E94680068E24C
S113017070E080E091E00E9499000E948F00FFCF20
S1070180F894FFCF1D
S1110184686F6C6120657070726F6D320000E0
S9030000FC
