S0200000454A454D504C4F5F325F54494D45525F434F4E5441444F522E73726563CE
S11300000C9434000C9451000C9451000C94510045
S11300100C9451000C9451000C9451000C94510018
S11300200C9451000C9451000C9451000C94510008
S11300300C9451000C9439010C9451000C9451000F
S11300400C9451000C9451000C9451000C945100E8
S11300500C9451000C9451000C9451000C945100D8
S11300600C9451000C94510011241FBECFEFD8E022
S1130070DEBFCDBF11E0A0E0B1E0E8EDF8E002C0E2
S113008005900D92A631B107D9F721E0A6E1B1E0C0
S113009001C01D92AC32B207E1F70E9453010C94E7
S11300A06A040C94000080FF04C095B1946095B973
S11300B003C095B19B7F95B981FF04C095B1986049
S11300C095B903C095B1977F95B982FF04C095B1E6
S11300D0906195B903C095B19F7E95B983FF04C023
S11300E085B1806285B9089585B18F7D85B90895FC
S11300F095B19E7F95B995B1916095B90E945300D1
S11301008FE99FE00197F1F700C0000085B18E7F71
S113011085B9089584B18F6384B983E00E9478001F
S113012083E00E94780083E00E94780082E00E94CD
S1130130780082E00E94780088E00E94780080E0E5
S11301400E94780088E00E94780080E00E94780095
S113015081E00E94780080E00E9478008CE00E9498
S113016078000895CF9395B19D7F95B96130C9F01A
S113017028F0623049F16330D1F14BC0C0E8C80FB8
S113018090E080589F4F959587959595879595957F
S11301908795959587950E9478008C2F0E9478000A
S11301A038C0C0ECC80F90E080549F4F9595879558
S11301B09595879595958795959587950E9478004F
S11301C08C2F0E94780025C0C4E9C80F90E08C569B
S11301D09F4F959587959595879595958795959531
S11301E087950E9478008C2F0E94780012C0C4ED7D
S11301F0C80F90E08C529F4F95958795959587955C
S113020095958795959587950E9478008C2F0E94E7
S11302107800CF910895CF93C82F85B1826085B9B6
S11302208C2F82958F700E9478008C2F0E9478000A
S1130230CF910895CF93DF93EC0103C021960E94E0
S11302400B0188818111FACFDF91CF910895E0E805
S1130250F0E080818C7F8083E1E8F0E08081877E1C
S1130260808380818760808310928500109284004F
S113027008951F920F920FB60F9211248F939F939C
S113028081E080932A0188E59EE99093850080931C
S1130290840086B3816086BB9F918F910F900FBEBF
S11302A00F901F9018950E948A000E94270160E019
S11302B080E00E94B20080E091E00E941A018091E7
S11302C084009091850080932B011F928F9386E088
S11302D091E09F938F9386E191E09F938F930E9487
S11302E0800161E080E00E94B20086E191E00E941A
S11302F01A010F900F900F900F900F900F90DFCF77
S1130300AEE0B0E0E6E8F1E00C9441040D891E890A
S113031086E08C831A8309838FEF9FE79E838D8306
S1130320AE01475E5F4F6F89788DCE0101960E94C2
S1130330A201EF81F885E00FF11F10822E96E4E010
S11303400C945D04ABE0B0E0E8EAF1E00C94330413
S11303506C017B018A01FC0117821682838181FF73
S1130360CCC1CE0101963C01F6019381F70193FDC6
S1130370859193FF81917F01882309F4BAC1853265
S113038039F493FD859193FF81917F01853229F49E
S1130390B60190E00E949903E7CF912C212C312CD7
S11303A0FFE1F315D8F08B3279F038F4803279F02C
S11303B08332A1F4232D20611DC08D3261F080337E
S11303C069F4232D216016C0832D8260382EE32D1D
S11303D0E4603E2E2AC0F32DF8601DC037FC2DC00A
S11303E020ED280F2A3040F08E32B9F436FC81C15A
S11303F0232D2064322E19C036FE06C08AE0989E52
S1130400200D1124922E11C0EAE02E9E200D1124FD
S1130410222EF32DF0623F2E08C08C3621F4832D5A
S11304208068382E02C0883641F4F70193FD859127
S113043093FF81917F018111B3CF982F9F7D9554B4
S1130440933028F40C5F1F4F9FE399830DC08336CC
S113045031F0833771F0833509F059C021C0F801B8
S1130460808189830E5F1F4F88248394912C5301CC
S113047013C02801F2E04F0E511CF801A080B18096
S113048036FE03C0692D70E002C06FEF7FEFC50137
S11304900E948E034C018201F32DFF773F2E16C07C
S11304A0280122E0420E511CF801A080B18036FEE2
S11304B003C0692D70E002C06FEF7FEFC5010E9499
S11304C083034C01F32DF0683F2E820133FC1BC0E3
S11304D0822D90E088169906B0F4B60180E290E08F
S11304E00E9499032A94F4CFF50137FC859137FED5
S11304F081915F01B60190E00E94990321102A9432
S113050021E0821A91088114910471F7E8C08436BD
S113051011F0893641F5F80137FE07C06081718119
S1130520828193810C5F1F4F08C060817181072E07
S1130530000C880B990B0E5F1F4FF32DFF763F2E97
S113054097FF09C090958095709561957F4F8F4F67
S11305509F4FF0683F2E2AE030E0A3010E94D503AC
S1130560882E861845C0853731F4232D2F7EB22E70
S11305702AE030E025C0932D997FB92E8F36C1F043
S113058018F4883579F0B5C0803719F0883721F030
S1130590B0C0E92FE061BE2EB4FE0DC0FB2DF460A7
S11305A0BF2E09C034FE0AC0292F2660B22E06C011
S11305B028E030E005C020E130E002C020E132E074
S11305C0F801B7FE07C060817181828193810C5F5D
S11305D01F4F06C06081718180E090E00E5F1F4F65
S11305E0A3010E94D503882E8618FB2DFF773F2E8A
S11305F036FE0DC0232D2E7FA22E891458F434FE0E
S11306000BC032FC09C0832D8E7EA82E05C0B82CE9
S1130610A32C03C0B82C01C0B92CA4FE0FC0FE014A
S1130620E80DF11D8081803321F49A2D997EA92E45
S113063009C0A2FE06C0B394B39404C08A2D867880
S113064009F0B394A3FC11C0A0FE06C0B21488F450
S1130650280C922C9B180EC0B21460F4B60180E2F0
S113066090E00E949903B394F7CFB21418F42B18B6
S113067002C0982C212CA4FE10C0B60180E390E0A7
S11306800E949903A2FE17C0A1FC03C088E790E072
S113069002C088E590E0B6010CC08A2D867859F036
S11306A0A1FE02C08BE201C080E2A7FC8DE2B6018C
S11306B090E00E949903891438F4B60180E390E035
S11306C00E9499039A94F7CF8A94F301E80DF11DDF
S11306D08081B60190E00E9499038110F5CF222019
S11306E009F442CEB60180E290E00E9499032A9474
S11306F0F6CFF6018681978102C08FEF9FEF2B968C
S1130700E2E10C944F04FC0105906150704001102B
S1130710D8F7809590958E0F9F1F0895FC01615026
S1130720704001900110D8F7809590958E0F9F1F0F
S113073008950F931F93CF93DF93FB01238121FD32
S113074003C08FEF9FEF2CC022FF16C04681578154
S1130750248135814217530744F4A081B1819D015E
S11307602F5F3F4F318320838C93268137812F5F06
S11307703F4F3783268314C08B01EC01FB010084B7
S1130780F185E02D0995892BE1F6D80116968D9116
S11307909C911797019617969C938E931697CE016A
S11307A0DF91CF911F910F910895FA01AA27283064
S11307B051F1203181F1E8946F936E7F6E5F7F4F2A
S11307C08F4F9F4FAF4FB1E03ED0B4E03CD0670FA6
S11307D0781F891F9A1FA11D680F791F8A1F911DF9
S11307E0A11D6A0F711D811D911DA11D20D009F449
S11307F068943F912AE0269F11243019305D31938B
S1130800DEF6CF010895462F4770405D4193B3E073
S11308100FD0C9F7F6CF462F4F70405D4A3318F01A
S1130820495D31FD4052419302D0A9F7EACFB4E0CB
S1130830A6959795879577956795BA95C9F7009783
S11308406105710508959B01AC010A2E0694579524
S1130850479537952795BA95C9F7620F731F841F7B
S1130860951FA01D08952F923F924F925F926F9211
S11308707F928F929F92AF92BF92CF92DF92EF922C
S1130880FF920F931F93CF93DF93CDB7DEB7CA1BAD
S1130890DB0B0FB6F894DEBF0FBECDBF09942A88D8
S11308A0398848885F846E847D848C849B84AA8480
S11308B0B984C884DF80EE80FD800C811B81AA810D
S11308C0B981CE0FD11D0FB6F894DEBF0FBECDBFD8
S10B08D0ED010895F894FFCF37
S11308D8636C6173650050726F647563746F733A07
S10908E8202530347500E8
S9030000FC
