:100000000C9434000C9446000C9446000C9446006A
:100010000C9446000C9446000C9446000C94460048
:100020000C9446000C9446000C9446000C94460038
:100030000C9446000C9464000C9446000C9446000A
:100040000C9446000C9446000C9446000C94460018
:100050000C9446000C9446000C9446000C94460008
:100060000C9446000C94460011241FBECFEFD8E03C
:10007000DEBFCDBF21E0A0E0B1E001C01D92A13004
:10008000B207E1F70E947E000C9492000C940000ED
:10009000E0E8F0E080818C7F8083E1E8F0E080811F
:1000A000877E808380818360808380818B7F808353
:1000B00088E59EE99093850080938400EFE6F0E068
:1000C00080818160808308951F920F920FB60F92F6
:1000D00011248F939F9381E08093000188E59EE92E
:1000E000909385008093840086B3816086BB9F9146
:1000F0008F910F900FBE0F901F9018950E9448008F
:1001000087B1816087B988B18E7F88B978948091F2
:1001100000018823E1F398B181E0892788B9109222
:080120000001F5CFF894FFCFB8
:00000001FF
