S01B0000656A656D706C6F5F457870616E736F725F494F2E7372656377
S11300000C9434000C9451000C9451000C94510045
S11300100C9451000C9451000C9451000C94510018
S11300200C9451000C9451000C9451000C94510008
S11300300C9451000C9451000C9451000C945100F8
S11300400C9451000C9451000C9451000C945100E8
S11300500C9451000C9451000C9451000C945100D8
S11300600C9451000C94510011241FBECFEFD8E022
S1130070DEBFCDBF11E0A0E0B1E0E0E0F2E002C0FD
S113008005900D92AA30B107D9F721E0AAE0B1E0BA
S113009001C01D92AD30B207E1F70E94A1000C949B
S11300A0FE000C940000E9EBF0E080818C7F8083FB
S11300B088E48093B8000895ECEBF0E08081846AD2
S11300C080838091BC008823E4F78091B900887F05
S11300D0883021F0803119F481E0089581E0089599
S11300E08E7F6170682B6093BB0084E88093BC00B2
S11300F08091BC008823E4F78091B900887F88311F
S113010021F0803419F481E0089581E0089580930A
S1130110BB0084E88093BC008091BC008823E4F792
S11301208091B900887F883209F481E00895ECEB6E
S1130130F0E08081846980838091BC0084FFFCCFDF
S113014008950E94530010920B0150C00E945C005D
S113015060E086E40E947000E0910B01F0E0E05062
S1130160FF4F80810E94870010920A0136C00E94CE
S11301705C0060E08CE40E947000E0910A01F0E011
S1130180E050FF4F80810E94870010920C011CC038
S11301900E945C0060E080E40E947000E0910C0129
S11301A0F0E0E050FF4F80810E9487002FEF80E74E
S11301B092E0215080409040E1F700C0000080911F
S11301C00C018F5F80930C0180910C018A3000F345
S11301D080910A018F5F80930A0180910A018A301D
S11301E030F280910B018F5F80930B0180910B01A2
S11301F08A3008F4ABCF0E949700A5CFF894FFCFC4
S10D0200C0F9A4B0999282F880902E
S9030000FC
